:100000000C9446000C946C000C946C000C946C00E6
:100010000C946C000C946C000C9467010C946C00B4
:100020000C946C000C946C000C946C000C942907DC
:100030000C946C000C946C000C9489060C946C006D
:100040000C946C000C946C000C946C000C946C0080
:100050000C946C000C946C000C946C000C944B078A
:100060000C946C000C946C00C90145029D01940134
:100070009A0127021C02A7088B078B07A408B00867
:10008000A008B708B308BB087408460811241FBEAF
:10009000CFEFD8E0DEBFCDBF14BE88E10FB6F89435
:1000A00080936000109260000FBE11E0A0E0B1E00C
:1000B000E6EDF9E102C005900D92AC30B107D9F739
:1000C00011E0ACE0B1E001C01D92AE36B107E1F73E
:1000D0000E94EA090C94E90C0C940000089581E058
:1000E0000E94050784E690E00E94D20284E00E940C
:1000F000050784E690E00C94D202089580E090E039
:1001000008950895DF92EF92FF920F931F93CF937C
:10011000DF93F89414B817B81AB815B818B81BB804
:10012000529A5A9A14BC85E085BD8FEF87BD22E0B4
:1001300020936E0010928000109281008FE89BE067
:10014000909389008093880020936F0053982398A0
:1001500081EA8093B0002093B1001092B400109215
:10016000B3008BE080BF83E080937F0086E08093C4
:100170007C0083E880937A0080917A008064809389
:100180007A0080917A0086FDFCCF10927C0083EA91
:1001900080937A0081E080937B0081E090E00E9470
:1001A0007F0C8F3F11F08093660010923701C1E001
:1001B000C0931001C093540110922E011092680157
:1001C00080E990E00E947F0C80932D0180912D01A9
:1001D000887311F0C0932D011092580110925701AD
:1001E0008FEF90E090935601809355011092330168
:1001F00010923401109235011092360181E0809303
:100200000F0182E49FE0909367018093660180EB89
:1002100090E00E947F0CC82F81EB90E00E947F0C41
:100220002C2F30E0382B30936A012093690185E050
:1002300090E00E947F0C80936D0189E090E00E9425
:100240007F0C809359018CE090E00E947F0C80939A
:100250006B0184E190E00E947F0C80936C0158E375
:10026000E52E51E0F52E01E111E0C0E2D0E0CE0133
:100270000E947F0CD82ECE0101960E947F0C2D2D5E
:1002800030E0322F2227282BF701219331937F0171
:10029000CE01C0960E947F0CD82ECE01C1960E943E
:1002A0007F0C2D2D30E0322F2227282BF8012193AF
:1002B00031938F012296CC33D105C9F67894DF9122
:1002C000CF911F910F91FF90EF90DF9008951F92B3
:1002D0000F920FB60F9211248F9388E10FB6F89406
:1002E00080936000109260000FBE8F910F900FBE40
:1002F0000F901F9018953C01EB0110E099249A94FF
:1003000084E0C82E96E0A92E23E8B22E38E1D32E41
:1003100049E2E42EE0910F01F0E0E730F105D0F77B
:10032000EC5CFF4F0C94180A112309F4FCC0C09236
:100330000F0111E0FE010995EDCF80913701811188
:10034000EBC0F894A0927C00B0927A0080917A0081
:10035000806480937A0080917A0086FDFCCF2091A2
:1003600078003091790078942B3A92E039070CF0BC
:10037000EDC02938E2E03E070CF0EFC027363240EE
:100380000CF4CAC0559A549A3B9A3A9A3D983C98B4
:10039000C1CFF89480B7877F80BF80917A008F7734
:1003A00080937A0014B817B81AB815B818B81BB8E3
:1003B0000FB6F894A895D09260000FBEE09260004E
:1003C0008091600080648093600083B7817F846047
:1003D00083BFF89483B7816083BF7894889583B78F
:1003E0008E7F83BF789410923701529A5A9A8091E7
:1003F0007A00806880937A0087E592E00197F1F7B0
:1004000000C0000080B7886180BF559A549A3B9A1B
:100410003A9A3D9A3C9AEFE1FEE43197F1F700C039
:10042000000080913701811181C0559854983B9804
:100430003A983D983C986ECF80910D01811141C052
:100440001092B3001092B40010920E0163CF48993D
:10045000ECCF559A54983B983A983D983C988FEC3D
:1004600097E00197F1F700C00000559854983B9829
:100470003A983D983C989FEFE1EEF4E09150E040CF
:10048000F040E1F700C0000045CF559854983B9AE2
:100490003A9A3D983C98EFECF7E03197F1F700C0BD
:1004A0000000559854983B983A983D983C98FFEF37
:1004B00021EE84E0F15020408040E1F700C00000D0
:1004C00029CF90910D0180910E01981709F422CF48
:1004D00080910D0180930E0180910D01813009F40E
:1004E00050C080910D011092B3009092B400823000
:1004F000D9F19092B3009092B4008FE295E7019702
:10050000F1F700C0000080916C0190916B01909315
:10051000B3008093B400FECE559A549A3B983A9813
:100520003D983C98F7CEF301099501CF559A549A1E
:100530003B983A983D983C98FFEF20E782E0F150D5
:1005400020408040E1F700C000006FCF55985498DC
:100550003B9A3A9A3D983C98DDCE559854983B98F2
:100560003A983D9A3C9AD6CEEFE2F5E73197F1F70B
:1005700000C00000809159011092B3008093B40034
:10058000C9CE9092B3001092B4008FE295E7019724
:10059000F1F700C0000080916D018093B3001092CC
:1005A000B400B8CE07C0EFECF7E03197F1F700C028
:1005B000000001970097B9F708958093B300609306
:1005C000B40008958FEF8093B3008093B4008FE060
:1005D00090E0EFECF7E03197F1F700C000000197F1
:1005E000C1F708958091370181111EC0F89487E00A
:1005F00080937C0083E880937A0080917A00806405
:1006000080937A0080917A0086FDFCCF80917800FB
:100610009091790010927C0023EA20937A0021E0E7
:1006200020937B00789408958FEF9FEF0895809139
:10063000370181111EC0F89488EC80937C0087E814
:1006400080937A0080917A00806480937A00809110
:100650007A0086FDFCCF809178009091790010920D
:100660007C0023EA20937A0021E020937B00789499
:1006700008958FEF9FEF08951F93CF93DF9360E06E
:1006800070E080E013EAD1E0C6E0B3E8E1E0F0E03A
:1006900020E830E0F894C0937C00B0937A00909109
:1006A0007A00906490937A0090917A0096FDFCCF46
:1006B0004091780050917900A42FA17090917A0018
:1006C000906490937A0090917A0096FDFCCF4091CF
:1006D00078005091790010927C0010937A00D093AA
:1006E0007B0078944170A41303C02150310991F626
:1006F000AA2339F09F01062E01C0220F0A94EAF7BF
:10070000822B6F5F7F4F6830710509F0C1CFDF9199
:10071000CF911F91089580910001982F990F990F03
:10072000990F982780910C0121E0280F20930C014C
:1007300086958695892792959695977089278093B7
:10074000000108958093000108958091370181117F
:1007500016C0F89486E080937C0083E880937A004A
:1007600080917A00806480937A0080917A0086FD7F
:10077000FCCF8091780090917900789408958FEF64
:100780009FEF08952F923F924F925F926F927F92C8
:100790008F929F92AF92BF92CF92DF92EF92FF9291
:1007A0000F931F93CF93DF9300D000D000D0CDB72D
:1007B000DEB78C01DC0112960D90BC91A02DBE839A
:1007C000AD83A438E3E0BE070CF0CAC080911101EC
:1007D000909112018A179B0708F4A9C16090130138
:1007E000709014016A167B0608F427C26090150108
:1007F000709016016A167B0608F428C260901701F3
:10080000709018016A167B0608F429C260901901DD
:1008100070901A016A167B0608F42AC260901B01C8
:1008200070901C016A167B0608F48BC160901D0154
:1008300070901E016A167B0608F423C260901F01A7
:10084000709020016A167B0608F424C26090210192
:10085000709022016A167B0608F425C2609023017D
:10086000709024016A167B0608F426C26090250168
:10087000709026016A167B0608F427C26090270153
:10088000709028016A167B0608F42DC26090290139
:1008900070902A016A167B0608F42EC260902B0124
:1008A00070902C016A167B0608F42FC280E090E05D
:1008B000A0EDB0E489839A83AB83BC832CE0E22E65
:1008C000F12CF701EE0FFF1FEF5EFE4F808191814B
:1008D000B301681B790B80E090E00E94300B9B0114
:1008E000AC010E94330A6B017C01AD81BE81BD0168
:1008F000882777FD8095982F0E94320B4B015C0171
:10090000B30180E090E00E94300B2B013C01298173
:100910003A814B815C81C701B6010E94BE0B9B01ED
:10092000AC01C301B2010E94320A9B01AC01C501B6
:10093000B4010E94320A20E030E040E251E40E941B
:10094000BE0B0E94FF0A5B01C701B6010E94FF0AAD
:10095000AB01BC01C501BA010E94040A762EE8C0B1
:1009600077247A94D801AD90BC9080913801909111
:1009700039018A159B0508F46FC000913A01109166
:100980003B010A151B0508F45CC100913C01109164
:100990003D010A151B0508F45DC100913E0110914F
:1009A0003F010A151B0508F45EC10091400110913A
:1009B00041010A151B0508F45FC100914201109125
:1009C00043010A151B0508F4D8C000914401109199
:1009D00045010A151B0508F458C100914601109104
:1009E00047010A151B0508F459C1009148011091EF
:1009F00049010A151B0508F45AC100914A011091DA
:100A00004B010A151B0508F45BC100914C011091C4
:100A10004D010A151B0508F45CC100914E011091AF
:100A20004F010A151B0508F459C10091500110919E
:100A300051010A151B0508F45AC100915201109189
:100A400053010A151B0508F45BC11AE5BFEF7B12C1
:100A500007C081E2810F52C010E0BFEF7B16C9F3DF
:100A6000ED81FE81BF01882777FD8095982F0E9438
:100A7000320B6B017C01672D70E080E090E00E94FA
:100A8000300B4B015C01A701960160E070E081E64C
:100A900094E40E94320A9B01AC01C501B4010E949A
:100AA000BE0B4B015C01612F70E080E090E00E9482
:100AB000300B2B013C0120E030E04FE254E4C70151
:100AC000B6010E94320A9B01AC01C301B2010E942F
:100AD000BE0B9B01AC01C501B4010E94330A20E0AA
:100AE00030E048E453E40E94970A20E030E044E01C
:100AF00052E40E94330A0E94040B862F26960FB6FA
:100B0000F894DEBF0FBECDBFDF91CF911F910F9143
:100B1000FF90EF90DF90CF90BF90AF909F908F901D
:100B20007F906F905F904F903F902F900895712C21
:100B3000ED81FE81ED3BF2400CF014CF81E2870D98
:100B4000DDCF65E085E090E07C01F1E0EF1AF1088F
:100B500070E080E090E00E94300B20E030E040E068
:100B60005FE30E94BE0B20E030E0A9010E94330A3F
:100B700069837A838B839C83A4CEF5E06F2EE5E0B6
:100B8000F0E0EE0FFF1FEA5CFE4F80819181B8011B
:100B9000681B790B80E090E00E94300B9B01AC0158
:100BA0000E94330A6B017C01B501882777FD80958F
:100BB000982F0E94320B4B015C01B80180E090E05D
:100BC0000E94300B1B012C01662D70E080E090E04C
:100BD0000E94300B20E030E040E05FE30E94BE0B5B
:100BE00020E030E0A9010E94330AA70196010E948B
:100BF000BE0B9B01AC01C201B1010E94320A9B01F4
:100C0000AC01C501B4010E94320A20E030E040E2AC
:100C100051E40E94BE0B0E94FF0A8B01C701B6017E
:100C20000E94FF0AAB01BC01C801BA010E94040A7C
:100C3000162F6F3F09F011CF81CF61E081E090E086
:100C400083CF66246394E1E0F0E09BCF62E082E032
:100C500090E07ACF82E0682EE2E0F0E092CF63E0AD
:100C600083E090E071CFB3E06B2EE3E0F0E089CF5A
:100C700064E084E090E068CFA4E06A2EE4E0F0E075
:100C800080CF66E086E090E05FCFE6E06E2EE6E0A3
:100C9000F0E077CF67E087E090E056CF77E0672E0F
:100CA000E7E0F0E06ECF68E088E090E04DCF68E0EC
:100CB000662EE8E0F0E065CF69E089E090E044CF9F
:100CC00059E0652EE9E0F0E05CCF6AE08AE090E070
:100CD0003BCF4AE0642EEAE0F0E053CF3BE0632EE6
:100CE000EBE0F0E04ECF6BE08BE090E02DCF2CE01E
:100CF000622EECE0F0E045CF6CE08CE090E024CF99
:100D00009DE0692EEDE0F0E03CCF6DE08DE090E0FD
:100D10001BCF1F920F920FB60F9211242F933F9368
:100D20004F935F936F937F938F939F93AF93BF93F3
:100D3000EF93FF93809157019091580120915501B5
:100D400030915601820F931F909358018093570161
:100D50008FEF90E090935601809355018FEF87BD00
:100D60008091330190913401A0913501B091360109
:100D70000196A11DB11D8093330190933401A0937E
:100D80003501B09336018091370181110FC08091F8
:100D900066019091670120915701309158018217A7
:100DA000930720F480910F01843089F0FF91EF9137
:100DB000BF91AF919F918F917F916F915F914F9173
:100DC0003F912F910F900FBE0F901F901895E091BB
:100DD0000301F09104010995009741F30E9467090E
:100DE000811109C00E946F0C99279093560180933E
:100DF000550187BDDBCFE0910101F091020109951A
:100E00001092580110925701D1CF80FF11C0559A0E
:100E100081FF11C0549A82FF11C03B9A83FF11C019
:100E20003A9A84FF11C03D9A85FD11C03C980895FF
:100E3000559881FDEFCF549882FDEFCF3B9883FD0D
:100E4000EFCF3A9884FDEFCF3D9885FFEFCF3C9AE6
:100E500008951F920F920FB60F9211248F939F93B4
:100E600010928100109285001092840081E080939E
:100E70001001809354011092370110927C0093EA84
:100E800090937A0080937B009F918F910F900FBE7B
:100E90000F901F9018951F920F920FB60F9211246A
:100EA0002F933F934F935F936F937F938F939F9372
:100EB000AF93BF93CF93DF93EF93FF932091840081
:100EC0003091850041E040933701809110018823E3
:100ED000A9F1109285001092840040938100109235
:100EE000680110921001809154018823A1F0809133
:100EF0007A0086FDFCCF80917800909179009093E4
:100F000032018093310181E080937C0093EA9093D9
:100F10007A0080937B00FF91EF91DF91CF91BF9199
:100F2000AF919F918F917F916F915F914F913F9181
:100F30002F910F900FBE0F901F901895C9018758E1
:100F400091098437994008F04FC026583109A4EF21
:100F5000B0E00E94F509AA27BB27883008F47BC0BF
:100F60004093100180915401811152C080912E0153
:100F7000E82FF0E0E65AFE4F9091680190838F5F72
:100F800080932E018C3039F61092810010928500EA
:100F9000109284004093540110923701C091640173
:100FA000D09165018AE591E00E944E09C817D907E2
:100FB00009F0B1CF8091630187FF5EC098E7980F79
:100FC000933030F0539823981092B4001092B300ED
:100FD00090E0FC01E058F109EB30F10508F09BCFFF
:100FE000E55CFF4F0C94180A109281001092850066
:100FF00010928400409310014093540110923701E5
:1010000010927C0083EA80937A0040937B0083CF28
:1010100080917A0086FDFCCF8091780090917900D4
:101020009093300180932F0110927C0083EA80938B
:101030007A0081E080937B00909168019923B9F058
:1010400010928100109285001092840080935401C8
:101050001092370160CF21E030E001C0220F8A9565
:10106000EAF780916801822B8093680154CF109237
:10107000540110922E014FCFE0910501F09106012D
:101080006FE271E08AE591E0099545CF80915A01C0
:10109000823009F4DCC008F4B9C0833009F4C5C05B
:1010A000843009F0B0C080910D01909160018330CF
:1010B00009F4E2C080915F0110920E0123E02093B9
:1010C0000D0180936B0190936C0180910F0186302C
:1010D00009F421CF539A239A1092B4001092B300CE
:1010E00086E080930F0117CF80910F01863099F031
:1010F000539A239A1092B4001092B30055985498C2
:101100003B983A983D983C9810920D0110920E0130
:1011100086E080930F0181E090E000905A0102C0C8
:10112000880F991F0A94E2F72091690130916A01B2
:1011300082239323892B09F086C010920D01EBCEF8
:1011400081E080930F01E7CEE0E0F0E00995809127
:101150006E008D7F80936E0016BCE0E0F0E709958D
:1011600010920F01D8CE82E080930F01D4CE85E09B
:1011700080930F01D0CE80910F01833009F4CBCE44
:1011800080910F01843009F4C6CE539A239A1092AD
:10119000B4001092B30083E080930F01BCCE809125
:1011A0000F01863009F0B7CE6091690180EB90E0C5
:1011B0000E94870C60916A0181EB90E00E94870C8D
:1011C00060916D0185E090E00E94870C609159016B
:1011D00089E090E00E94870C60916B018CE090E0C8
:1011E0000E94870C60916C0184E190E00E94870C62
:1011F000539823981092B4001092B30081E080932A
:101200000F0180915A01811160CF85CE882339F278
:101210008130C9F780915B0190915C0190936A01E4
:101220008093690110920D0150CF80910D018230A1
:1012300071F180915E0110920E0192E090930D0188
:101240008093590142CF81E080930D0164CE80915B
:101250000D01813051F080915D0110920E0191E0FD
:1012600090930D0180936D0130CF80915D0190913D
:101270006D018913F2CF29CF80916C0198131ACF99
:1012800080915F0120916B01821316CF1ECF809158
:101290005E01909159018913CECF17CFFC012AE04E
:1012A0008FEF9FEF31918327082E8295807F8025D5
:1012B000092E982F82958F70082686959827892762
:1012C000880F880F880F8025215061F708950FB689
:1012D000F894A4B120912D012A2B24B921E030915A
:1012E0002D01203029F0000025B1232B25B904C0A1
:1012F00000000000000000C0000000000000309569
:1013000025B1232325B92EEA2A95F1F72BEE30B724
:1013100035FF0AC0A4B930912D01309525B12323A2
:1013200025B90FBE80E0089500002A9581F721E0DD
:1013300030912D01203029F0000025B1232B25B953
:1013400004C000000000000000C000000000000019
:10135000309525B1232325B9000024E52A95F1F71E
:10136000FC018CE0619170E0660F771F6160726034
:101370009AE041E050E09A0126233723232B309155
:101380002D01203029F0000025B1232B25B904C000
:1013900000000000000000C00000000000003095C8
:1013A00025B1232325B9000021E52A95F1F7440F43
:1013B000551F9A9501F78A95A9F620B7206120BF9D
:1013C000A4B930912D01309525B1232325B90FBE45
:1013D00081E008950E9482006FE670E08EE690E062
:1013E0000E947B0180E090E00895A29FB001B39F2E
:1013F000C001A39F700D811D1124911DB29F700D1E
:10140000811D1124911D089597FB072E16F4009459
:1014100007D077FD09D00E941E0A07FC05D03EF4D4
:10142000909581959F4F0895709561957F4F089590
:10143000EE0FFF1F0590F491E02D0994AA1BBB1B32
:1014400051E107C0AA1FBB1FA617B70710F0A61BC4
:10145000B70B881F991F5A95A9F780959095BC01E5
:10146000CD0108955058BB27AA270ED04DC13ED1BB
:1014700030F043D120F031F49F3F11F41EF433C11A
:101480000EF4E095E7FB29C1E92F4FD180F3BA179D
:10149000620773078407950718F071F49EF567C11A
:1014A0000EF4E0950B2EBA2FA02D0B01B90190017F
:1014B0000C01CA01A0011124FF27591B99F0593FC3
:1014C00050F4503E68F11A16F040A22F232F342F0B
:1014D0004427585FF3CF469537952795A795F04059
:1014E0005395C9F77EF41F16BA0B620B730B840B6E
:1014F000BAF09150A1F0FF0FBB1F661F771F881F26
:10150000C2F70EC0BA0F621F731F841F48F487957D
:1015100077956795B795F7959E3F08F0B3CF93956C
:10152000880F08F09927EE0F9795879508950CD0AE
:10153000EBC0E3D040F0DAD030F021F45F3F19F097
:10154000CCC0511115C1CFC0F0D098F39923C9F385
:101550005523B1F3951B550BBB27AA2762177307B9
:10156000840738F09F5F5F4F220F331F441FAA1F6D
:10157000A9F333D00E2E3AF0E0E830D0915050402D
:10158000E695001CCAF729D0FE2F27D0660F771FDB
:10159000881FBB1F261737074807AB07B0E809F0BD
:1015A000BB0B802DBF01FF2793585F4F2AF09E3F52
:1015B000510568F092C0DCC05F3FECF3983EDCF36D
:1015C000869577956795B795F7959F5FC9F7880FCB
:1015D000911D9695879597F90895E1E0660F771F1D
:1015E000881FBB1F621773078407BA0720F0621BAE
:1015F000730B840BBA0BEE1F88F7E095089504D0A7
:101600006894B111B5C0089598D088F09F5790F0B4
:10161000B92F9927B751A0F0D1F0660F771F881F17
:10162000991F1AF0BA95C9F712C0B13081F09FD056
:10163000B1E008959CC0672F782F8827B85F39F0F4
:10164000B93FCCF3869577956795B395D9F73EF476
:1016500090958095709561957F4F8F4F9F4F08951E
:10166000E89409C097FB3EF490958095709561953C
:101670007F4F8F4F9F4F9923A9F0F92F96E9BB27F2
:101680009395F695879577956795B795F111F8CF6E
:10169000FAF4BB0F11F460FF1BC06F5F7F4F8F4FD9
:1016A0009F4F16C0882311F096E911C0772321F0CF
:1016B0009EE8872F762F05C0662371F096E8862F67
:1016C00070E060E02AF09A95660F771F881FDAF7BE
:1016D000880F9695879597F9089597F99F6780E801
:1016E00070E060E008959FEF80EC089500240A9474
:1016F0001616170618060906089500240A941216ED
:101700001306140605060895092E0394000C11F41F
:10171000882352F0BB0F40F4BF2B11F460FF04C0CC
:101720006F5F7F4F8F4F9F4F089557FD9058440F25
:10173000551F59F05F3F71F04795880F97FB991F30
:1017400061F09F3F79F087950895121613061406ED
:10175000551FF2CF4695F1DF08C01616170618067A
:10176000991FF1CF86957105610508940895E89455
:10177000BB2766277727CB0197F908950BD0C4CFF5
:10178000B5DF28F0BADF18F0952309F0A6CFABCF6C
:101790001124EECFCADFA0F3959FD1F3950F50E04F
:1017A000551F629FF001729FBB27F00DB11D639F13
:1017B000AA27F00DB11DAA1F649F6627B00DA11DB9
:1017C000661F829F2227B00DA11D621F739FB00D5F
:1017D000A11D621F839FA00D611D221F749F3327CF
:1017E000A00D611D231F849F600D211D822F762F68
:1017F0006A2F11249F5750408AF0E1F088234AF065
:10180000EE0FFF1FBB1F661F771F881F91505040B0
:10181000A9F79E3F510570F060CFAACF5F3FECF370
:10182000983EDCF3869577956795B795F795E7959C
:101830009F5FC1F7FE2B880F911D9695879597F9AD
:1018400008958F929F92AF92BF92CF92DF92EF92C4
:10185000FF92CF93DF93EC01688179818A819B812C
:10186000611571058105910521F464E279ED8BE53F
:1018700097E02DE133EF41E050E00E94A80C4901D0
:101880005A019B01AC01A7EAB1E40E94950C6B01DF
:101890007C01ACEEB4EFA50194010E94A30CC60E2E
:1018A000D71EE81EF91EF7FE06C081E0C81AD1084F
:1018B000E10880E8F80AC882D982EA82FB82C60180
:1018C0009F77DF91CF91FF90EF90DF90CF90BF9007
:1018D000AF909F908F9008950E94210C089587E00B
:1018E00091E00E94210C0895A0E0B0E080930701F0
:1018F00090930801A0930901B0930A010895F99902
:10190000FECF92BD81BDF89A992780B50895262F04
:10191000F999FECF1FBA92BD81BD20BD0FB6F894D4
:10192000FA9AF99A0FBE019608950E94F509A59FAB
:10193000900DB49F900DA49F800D911D11240895CA
:10194000B7FF0C94950C0E94950C821B930B089585
:10195000052E97FB1EF400940E94BF0C57FD07D084
:101960000E94C70C07FC03D04EF40C94BF0C50959A
:101970004095309521953F4F4F4F5F4F089590957B
:101980008095709561957F4F8F4F9F4F0895A1E28D
:101990001A2EAA1BBB1BFD010DC0AA1FBB1FEE1FE9
:1019A000FF1FA217B307E407F50720F0A21BB30B34
:1019B000E40BF50B661F771F881F991F1A9469F7B0
:1019C00060957095809590959B01AC01BD01CF010C
:0619D0000895F894FFCF1A
:0C19D600AA81007E007D000100000000DE
:00000001FF
